:020000040000fa
:080000000002040000000000f2
:020000040000fa
:040008007605000079
:020000040000fa
:04000c00d802000016
:020000040000fa
:04001000ea02000000
:020000040000fa
:04001400e002000006
:020000040000fa
:04001800f2020000f0
:020000040000fa
:04001c007605000065
:020000040000fa
:040020007605000061
:020000040000fa
:04002400760500005d
:020000040000fa
:040028007605000059
:020000040000fa
:04002c007605000055
:020000040000fa
:040030007605000051
:020000040000fa
:04003400fa020000cc
:020000040000fa
:040038007605000049
:020000040000fa
:04003c007605000045
:020000040000fa
:040040007605000041
:020000040000fa
:04004400c4030000f1
:020000040000fa
:04004800fc030000b5
:020000040000fa
:04004c007605000035
:020000040000fa
:040050007605000031
:020000040000fa
:04005400760500002d
:020000040000fa
:040058007605000029
:020000040000fa
:04005c007605000025
:020000040000fa
:040060007605000021
:020000040000fa
:04006400760500001d
:020000040000fa
:040068007605000019
:020000040000fa
:04006c007605000015
:020000040000fa
:040070007605000011
:020000040000fa
:040074008a040000fa
:020000040000fa
:040078007605000009
:020000040000fa
:04007c007605000005
:020000040000fa
:040080007605000001
:020000040000fa
:0400840076050000fd
:020000040000fa
:0400880076050000f9
:020000040000fa
:04008c0076050000f5
:020000040000fa
:0400900076050000f1
:020000040000fa
:0400940076050000ed
:020000040000fa
:0400980076050000e9
:020000040000fa
:04009c0076050000e5
:020000040000fa
:0400a00076050000e1
:020000040000fa
:0400a40076050000dd
:020000040000fa
:0400a80076050000d9
:020000040000fa
:0400ac0076050000d5
:020000040000fa
:0400b00076050000d1
:020000040000fa
:0400b40076050000cd
:020000040000fa
:0400b80076050000c9
:020000040000fa
:0400bc0076050000c5
:020000040000fa
:0400c00076050000c1
:020000040000fa
:0400c40076050000bd
:020000040000fa
:0400c80076050000b9
:020000040000fa
:0400cc0076050000b5
:020000040000fa
:0400d00076050000b1
:020000040000fa
:0400d40076050000ad
:020000040000fa
:0400d80076050000a9
:020000040000fa
:0400dc0076050000a5
:020000040000fa
:0400e00076050000a1
:020000040000fa
:0400e400760500009d
:020000040000fa
:0400e8007605000099
:020000040000fa
:0400ec007605000095
:020000040000fa
:0400f0007605000091
:020000040000fa
:0400f400760500008d
:020000040000fa
:0400f8007605000089
:020000040000fa
:0400fc007605000085
:020000040000fa
:040100007605000080
:020000040000fa
:04010400760500007c
:020000040000fa
:040108007605000078
:020000040000fa
:04010c007605000074
:020000040000fa
:040110007605000070
:020000040000fa
:04011400760500006c
:020000040000fa
:040118007605000068
:020000040000fa
:04011c007605000064
:020000040000fa
:040120007605000060
:020000040000fa
:04012400760500005c
:020000040000fa
:040128007605000058
:020000040000fa
:04012c007605000054
:020000040000fa
:040130007605000050
:020000040000fa
:04013400760500004c
:020000040000fa
:040138007605000048
:020000040000fa
:04013c007605000044
:020000040000fa
:040140007605000040
:020000040000fa
:04014400760500003c
:020000040000fa
:040148007605000038
:020000040000fa
:04014c007605000034
:020000040000fa
:040150007605000030
:020000040000fa
:04015400760500002c
:020000040000fa
:040158007605000028
:020000040000fa
:04015c007605000024
:020000040000fa
:040160007605000020
:020000040000fa
:04016400760500001c
:020000040000fa
:040168007605000018
:020000040000fa
:04016c007605000014
:020000040000fa
:040170007605000010
:020000040000fa
:04017400760500000c
:020000040000fa
:040178007605000008
:020000040000fa
:04017c007605000004
:020000040000fa
:040180007605000000
:020000040000fa
:040208007605000077
:020000040000fa
:04020c007605000073
:020000040000fa
:04021000760500006f
:020000040000fa
:04021400760500006b
:020000040000fa
:040218007605000067
:020000040000fa
:04021c007605000063
:020000040000fa
:04022000760500005f
:020000040000fa
:04022400760500005b
:020000040000fa
:040228007605000057
:020000040000fa
:04022c007605000053
:020000040000fa
:04023000760500004f
:020000040000fa
:04023400760500004b
:020000040000fa
:040238007605000047
:020000040000fa
:04023c007605000043
:020000040000fa
:04024000760500003f
:020000040000fa
:04024400760500003b
:020000040000fa
:040248007605000037
:020000040000fa
:04024c007605000033
:020000040000fa
:04025000760500002f
:020000040000fa
:04025400760500002b
:020000040000fa
:040258007605000027
:020000040000fa
:04025c007605000023
:020000040000fa
:04026000760500001f
:020000040000fa
:04026400760500001b
:020000040000fa
:040268007605000017
:020000040000fa
:04026c007605000013
:020000040000fa
:04027000760500000f
:020000040000fa
:04027400760500000b
:020000040000fa
:040278007605000007
:020000040000fa
:04027c007605000003
:020000040000fa
:0402800076050000ff
:020000040000fa
:0402840076050000fb
:020000040000fa
:0402880076050000f7
:020000040000fa
:04028c0076050000f3
:020000040000fa
:0402900076050000ef
:020000040000fa
:0402940076050000eb
:020000040000fa
:0402980076050000e7
:020000040000fa
:04029c0076050000e3
:020000040000fa
:0402a00076050000df
:020000040000fa
:0402a40076050000db
:020000040000fa
:0402a80076050000d7
:020000040000fa
:0402ac0076050000d3
:020000040000fa
:0402b00076050000cf
:020000040000fa
:0402b40076050000cb
:020000040000fa
:0402b80076050000c7
:020000040000fa
:0402bc0076050000c3
:020000040000fa
:0402c00076050000bf
:020000040000fa
:0402c40076050000bb
:020000040000fa
:0402c80076050000b7
:020000040000fa
:0402cc0076050000b3
:020000040000fa
:0402d00076050000af
:020000040000fa
:0402d40076050000ab
:020000040000fa
:0402d80076050000a7
:020000040000fa
:0402dc0076050000a3
:020000040000fa
:0402e000760500009f
:020000040000fa
:0402e400760500009b
:020000040000fa
:0402e8007605000097
:020000040000fa
:0402ec007605000093
:020000040000fa
:0402f000760500008f
:020000040000fa
:0402f400760500008b
:020000040000fa
:0402f8007605000087
:020000040000fa
:0402fc007605000083
:020000040000fa
:04030000760500007e
:020000040000fa
:04030400760500007a
:020000040000fa
:040308007605000076
:020000040000fa
:04030c007605000072
:020000040000fa
:04031000760500006e
:020000040000fa
:04031400760500006a
:020000040000fa
:040318007605000066
:020000040000fa
:04031c007605000062
:020000040000fa
:04032000760500005e
:020000040000fa
:04032400760500005a
:020000040000fa
:040328007605000056
:020000040000fa
:04032c007605000052
:020000040000fa
:04033000760500004e
:020000040000fa
:04033400760500004a
:020000040000fa
:040338007605000046
:020000040000fa
:04033c007605000042
:020000040000fa
:04034000760500003e
:020000040000fa
:04034400760500003a
:020000040000fa
:040348007605000036
:020000040000fa
:04034c007605000032
:020000040000fa
:04035000760500002e
:020000040000fa
:04035400760500002a
:020000040000fa
:040358007605000026
:020000040000fa
:04035c007605000022
:020000040000fa
:04036000760500001e
:020000040000fa
:04036400760500001a
:020000040000fa
:040368007605000016
:020000040000fa
:04036c007605000012
:020000040000fa
:04037000760500000e
:020000040000fa
:04037400760500000a
:020000040000fa
:040378007605000006
:020000040000fa
:04037c007605000002
:020000040000fa
:0403800076050000fe
:020000040000fa
:10040000ef4d22000e7f22000e0188000000000048
:10041000000020000000e000020032000001200087
:100420002002880014000700060207000000e00018
:1004300003003a008015230001002000020037006d
:100440000000200001002000810f70000100320038
:1004500014000700000020000000e000020032004d
:100460000000020000000000b22b020000000000ab
:100470000040da000000fe004440a900800820008f
:100480000000e0000300320000002000a00188000e
:100490004440a800000006008a1f78008b1f7800e7
:1004a0000000060091018800800478000000eb0045
:1004b0001a003700e284440032a0b4009905ba0063
:1004c000e284440032a0b4009906ba00e2844400f9
:1004d00032a0b4000006eb00476fde00fd07b2005b
:1004e000636ce10003003a00ebff07000000eb0043
:1004f0000a003700606ce10004003a00005deb0088
:100500008b05e900fdff3e00040037006168e10053
:10051000010032000086eb000b00070019c7ba008b
:100520001905ba000e04e00003003a000a00e000da
:10053000e0ff3a0000000600fe07b2009e018800be
:100540008a047800f5ff3700395dba008b05e900b1
:100550000c003200295dba008b05e900080032006a
:100560000c00e00003003a00e284440032a0b40032
:10057000f5ff370019ddba008b05e900faff3a00f4
:100580008904e800e184440032a0b40000000600c1
:10059000000000000000000000000000000000005b
:1005a000000000000000000000000000000000004b
:1005b0003600f8008020a9000000eb006719070052
:1005c0003600f800691907008040a90010002000db
:1005d000621907003600f8008060a90020002000a2
:1005e0005e1907003600f8008080a9003000200066
:1005f0005a190700809fbe00829fbe000000fa00cb
:100600001119800000082000008060000000e00058
:100610001b00320019c8bf008000fb0000418000b1
:10062000021880004211de0002417800c3822000df
:10063000c908dd0080804000818041008248780048
:100640000000e8000041880019c8bf008000fb00de
:1006500000418000121880004211de000241780043
:10066000c3822000c908dd008080400081804100f5
:10067000824878000000e800004188001a00370036
:1006800019c8bf008000fb00004180008218800074
:100690004211de0002417800c3822000c908dd005b
:1006a0008080400081804100824878000000e8009e
:1006b0000041880019c8bf008000fb000041800095
:1006c000921880004211de0002417800c3822000af
:1006d000c908dd00808040008180410082487800a8
:1006e0000000e8000041880017c8bf000004e000d7
:1006f0001400320019c8bf008000fb0000418000d8
:100700000000e900c908dd0000804000c18220002f
:10071000614078000080fb00b00c880019c8bf0061
:100720008000fb00004180000080e900c908dd0076
:1007300000804000c1822000614078000080fb0002
:10074000000d88000141800000202000808f5000b3
:1007500008003a002028ef0019c8bf000040e80058
:1007600019e8b70019c8bf00ec4f500001003a006b
:100770001968ef008460a9000080fa004f01be00f4
:100780004f00be00004006003600f800809fbe000b
:10079000829fbe00849fbe00869fbe000000fa00bc
:1007a00000702900e301070094e0a90084e0a9009b
:1007b00011e1a9006000a8006040a8006060a800e6
:1007c00061058000f0ff28008080600000002500a7
:1007d00001007000600588009660a8000080fa00a3
:1007e0004f03be004f02be004f01be004f00be00cf
:1007f0003600f90000400600809fbe00821f78008e
:100800000000fa00504180000000e90050418800db
:10081000504180000000e00039003a007040800044
:100820005041880020408000104078008080fb000c
:1008300060408000008068007e004000b00c8800ae
:1008400050408000e20f50000a003a002140800032
:100850008040800000804000104078008080fb00d5
:1008600060408000008068007e004000000d88002d
:1008700002003700b00c8000000d8800214080008d
:1008800040408000008040002040880031408000cf
:1008900040408000008050003040880030408000a0
:1008a0000000e00012003c0019c8bf0011c0b300f6
:1008b00000c0500019e8b700c182200019c8bf006d
:1008c0000000fb004901dd00804080000000410085
:1008d0000000e90000804000204088000020200047
:1008e0003040880010002000e04088000100370000
:1008f0000000000013c8bf000004e000fdff3a0044
:100900008500a9000080fa004f0178004f00be006a
:10091000004006003600f800809fbe00829fbe00a7
:10092000849fbe00869fbe000000fa001016800063
:10093000700060000000e00031003a0015c8bf0000
:100940000004e0001d00320017c8bf000004e000f2
:1009500012003a00b070290076010700000028005c
:1009600090088800b0162000700888007008800089
:10097000a00c8800a00c8000f00c8800700880009b
:100980000000d100000d8800000d8000b00c880030
:1009900010c0b30017e8b7001900370080712900b4
:1009a000640107001221ef00a021ef00000d80007c
:1009b000b00c88001768ef001100370012c8bf00a4
:1009c0000004e00006003a006072290059010700a7
:1009d00010c0b30012e8b7001468ef000800370039
:1009e000807329005301070013c8bf000080fb007b
:1009f0000000e9004f00de000040780013e8b70077
:100a000010168000620060000000e00015003a004f
:100a100015c8bf000004e0000b003200007429007c
:100a2000440107001768ef0017c8bf0015e8b700ba
:100a300015c8bf0016e8b7001221ef0005e1a900b4
:100a400021e3a900070037000075290039010700dc
:100a500010c0b30015e8b7001368ef0013c8bf005b
:100a600012e8b70010168000610060000000e0008e
:100a700006003a0030762900801f78003b0207000c
:100a80008f87e90010c0b30014e8b7006000a90028
:100a90006040a9006060a9009660a9008660a90076
:100aa00084e0a90031058000f0ff2800808060000c
:100ab00000002500010070003005880094e0a800c7
:100ac0000080eb0060088800000328008008880090
:100ad0000080fa004f03be004f02be004f01be006f
:100ae0004f00be003600f900004006000040da006a
:100af0000000fe000a00fa0011002000b1bf9f00b4
:100b0000c0bf9f006a805700c00507004fb897001c
:100b10000080fa00000006000a00fa0051002000e0
:100b2000b1bf9f00c0bf9f006a805700b905070092
:100b30005fb897000080fa0000000600889fbe00a2
:100b400080047800e00d81000000e00004003a001d
:100b50000e0007000084eb000000e00008003500f4
:100b6000e80d81000900e0000500320009004400a2
:100b7000060007000000e00001003d000084eb00db
:100b8000080078004f04be000000060080007800d6
:100b90000100e00003003a00e01b2200e00d8900a4
:100ba000000005000080eb00e24d2200828f500023
:100bb00002003e00e10d89000000eb00000006008d
:100bc0000800fa00100798002107980032079800e3
:100bd0000000000011118000001020000080600063
:100be0000000e000fbff3200be009000010f780023
:100bf0000e003700000000001111800000102000de
:100c0000008060000000e000fbff32002e0090003a
:100c1000104078000000fb00201188002e0090009a
:100c20000000e800200798001e0fe9001e00780071
:100c30000000e000efff3a003e0090000080fa0064
:100c400000000600000005006022b8000602200037
:100c50000000d0008180d2000482d2008582d200c0
:100c60000000a0000202520083825a0003003100fb
:100c70000202420083824a000000a1000603e9004c
:100c8000f3ff3a0000000600800078001106b10072
:100c9000030035009101b10001003c000050a100ab
:100ca000000006000000e0002f003200c0017800c4
:100cb000e38f51002c0036000308a3002a003a00fd
:100cc000710d81000100e00002003200810f500030
:100cd0000400310011009800700d890016003700e3
:100ce00082007800110190000200e0000200320052
:100cf000800f5100faff3900110278008482400011
:100d0000850f500018003900808f520003003a0010
:100d10008308420001007800070037000200e0006d
:100d20000300320083014000830f51000e003900a0
:100d30001200980090009800900090000100e000e0
:100d40000900320010014000828f500006003a0076
:100d5000c21a22000009eb001001780011084100be
:100d6000910090001100980000000600889fbe00ce
:100d700000047800610d81000100e00002003200f3
:100d8000010078000d003700710d8100e01a22008b
:100d900004003700910f5400250036000180e80060
:100da000910090000100e000faff3a0010003700c7
:100db000920f54001e0036000280e80010017800f7
:100dc0000200e000faff3a0011017800710d810085
:100dd000e01a220004003700910f5400140036007e
:100de0000180e80091009000828f5000faff3a00e5
:100df000c90d8100888f54000100310088047800fb
:100e000009007800560007000000e00004003a00e6
:100e1000888f5400050032008904d100f5ff3700a7
:100e2000091878009fff0700d2ff37000000eb0091
:100e30004f04be0000000600881f780063044000d5
:100e40000800a1008000eb00800f54002100360054
:100e5000e30f540001003e00480020000800780025
:100e6000c2ff07008000eb000000e0001900320024
:100e7000900078009101780064815100880f510042
:100e800003003100110190000208780007003700cc
:100e90000881400002087800910190001301980039
:100ea00010017800110914008808780010017800fa
:100eb0000000eb000200e00004003200920190000c
:100ec0000300e000010032000280e800600d8900ac
:100ed0008180e800010078004f04780000000600df
:100ee0000900370030427800b1417800834f52004a
:100ef0000400320010002000060031000080eb00ea
:100f0000000006000201e9000200e000f5ff3a00df
:100f10000000eb00000006008001780002003700ae
:100f2000b15978000201e9000200e000fcff3a003c
:100f300000000600610a22004f01070080007800cf
:100f40000080eb000100e00004003500610a22008f
:100f5000a0002000bb0007004f80de00000006005c
:100f6000800078000000eb000100e0000500340084
:100f700001007800f1fe0700e10f400001003a0097
:100f80000000eb0000000600ee874700889fbe00cf
:100f90008a9fbe008c9fbe008e1f7800f0b79f0016
:100fa00001067800820578000004780008057800c2
:100fb0000a047800b84678000d00fb008c0007009a
:100fc0000000e000f9ff3a00d0c2b30080cf560025
:100fd0000300320000c0e90080cf560002003a0052
:100fe0000a05e80001003700804678000b00e000a9
:100ff00005003500e18f550003003200400220005b
:10100000808f5500060034006044b8000c00e000fa
:10101000700032007fb09700000e78006d0037003e
:101020000b00e0000e003200f08f55001a003a006d
:1010300000c3b3009a4f100017003a001a40900006
:1010400081c7b300814f50000300320081c5b30057
:10105000814f500010003a000a85e8000e0037006a
:10106000ab00200000c3b3009a4f10000a003a0002
:101070001a40900081c7b300814f50000400320035
:101080008b00200081c5b300814f500002003a0060
:101090000a85e8000b0120000a00780000027800b1
:1010a0000400780001c3b300b0cf1000fbff320092
:1010b000040778006044b800b4b79f000d00370003
:1010c0006110220081405000c1ef9f006159b900ba
:1010d0000800be00630407004fea97000401fb000c
:1010e000cf91de00c8b79f00d9b79f00020440002f
:1010f000838448008e0278003e00fb0085bf9f007d
:10110000430007000b017800800078006010220087
:10111000750107008fba97000000e000e8ff3a0071
:101120003fb29700850f550005003a006044b800b3
:101130000c00e00027003200ffb2970024003700c7
:1011400004825200b012220060c07d000000fb004b
:10115000000252001700330011003a004fe99700d7
:101160000200fb00cf80de000000540081805c00a4
:10117000800f5400818f5c00090039006159b9006b
:1011800085bf9f00b0fe07008fba97004fb1970050
:10119000dfb19700820f5000838f580005003200a6
:1011a00020022000800d89000084eb008084eb0089
:1011b00005003700d0c2b30080cf560002003a00cd
:1011c00060041400e0841c000c00e0000100320008
:1011d000050e78000800be004f0778004f06be00dd
:1011e0004f05be004f04be00ef00b1000000060036
:1011f0006900e100040035006d00e10003003400e7
:101200000002b100010032000000050010000500de
:10121000800078001104b100030035009101b10095
:1012200001003c000050a00000000600900d81006d
:101230000000e0000100320000000100001b22005d
:1012400000000600889fbe008a1f78000004be00d0
:10125000c900900069009000808f5000050039009f
:1012600009007800460107008080eb000000e000e4
:1012700016003500084578004900900008587800ad
:10128000c00498001900780000b8a30004003a00d8
:1012900000a8a30007003200ea4f540005003a00fe
:1012a00009007800390007008080eb000000e000b2
:1012b00006003a0000c02000190060000200320061
:1012c00049009000e00498008a80fb00010078004b
:1012d0004f0578004f04be0000000600881f78000c
:1012e00002047800080178000bff070008004000a6
:1012f0004f047800000006000000fa00881f780004
:1013000000047800ea8157003fb997008800780010
:10131000e0962000db0407000000e000020035003a
:101320008040eb00017478004f0478000080fa00e0
:1013300000000600889fbe000004780001007800cd
:1013400082047800880178000901780011002000eb
:1013500091000700890f5000010032000004eb00eb
:10136000080078004f04be00000006000000fa00ec
:10137000e88157004fb99700610a2200a099200028
:10138000c00407000080fa0000000600889fbe002d
:101390008a1f7800000478000800e0000d003a0081
:1013a000480f2200700544008004eb0058007800cc
:1013b0000000e00004003200f4ff07000000e0003d
:1013c00001003d008084eb008a0f5400f7ff3a00d3
:1013d0002500370000002200180060008004eb00a8
:1013e00021003200a80490000f00370009015100cd
:1013f000384090000000fb0089007800f0fd0700f5
:101400000000e00007003c00280090004004980025
:1014100060049800500c98001890a0008084eb00a5
:10142000110037008084440048019000828f5400ee
:10143000eeff3900280090004004980098007800e2
:1014400002c020000281600001003a0038009000d4
:1014500001e8a30002003200600498000100370098
:10146000500c98008004eb00090078004f057800cc
:101470004f04be0000000600889fbe008a9fbe0089
:1014800080047800010478002c003700c800900028
:1014900068009000808f5000040039000800780038
:1014a000b70007000000e0003700350000402000d2
:1014b0001800600009003200a10020000900780037
:1014c000a5000700800578000b00e0000300320053
:1014d000618514000a854500040037000900780082
:1014e00097000700000578008005eb004800900099
:1014f000e8009000808050008a8f50000200310088
:10150000010578008005eb000a0178008900780069
:1015100081fe0700480090000a0040004004980047
:101520000b00e000040032000800780097ff07007d
:101530000000e00014003a008a8444001904e0002e
:10154000d2ff3a0000802000180060000600320040
:10155000080078008dff0700800078000080eb0015
:101560000100e00009003a0001c0200098806000fe
:101570000000eb0005003200480090006004980075
:101580000000eb00010037000080eb004f05be00bb
:101590004f04be0000000600889fbe008a9fbe0068
:1015a0008c9fbe008e1f7800000678000104780032
:1015b00002007800830478000881b90002077800ef
:1015c0000200e000420032000800e000410032006a
:1015d00082057800c900900069009000808f50005b
:1015e0000400390009007800650007000000e000f1
:1015f0002900350000402000190060000a00320078
:101600000b017800a10020000c00780036000700d4
:10161000800678000d00e00006003200610516002b
:101620000a854600040037000b0578008006eb00b1
:10163000010037000b05780049009000e900900098
:10164000808050008a8f5000020031000105780030
:101650008006eb000a0178008c0078002efe07005f
:101660008a855500490090000a004000c004980097
:101670000d00e000040032000900780043ff07007d
:101680000000e00004003a000b00e000020032001d
:101690000a064600cfff37000080200019006000d6
:1016a000020032000900780038ff070000c0200067
:1016b000190060000200320049009000e004980028
:1016c0008b055700110009008885d80001003700fc
:1016d0000000eb004f0778004f06be004f05be002c
:1016e0004f04be000000060003003700b0cf10001a
:1016f000050032000201e900800178000200e000ec
:10170000faff3a0000000500030078000000060020
:10171000020037000304e0000600320000017800f8
:1017200002007800b041780081cf5100f9ff3a0003
:10173000010037000001eb00020078000000060005
:1017400080007800010178003104e000fdff3a00dc
:1017500000005100000006000001eb0000027800cc
:10176000b041780081cf510001003a0004017800b7
:101770000304e000f9ff3a000200780000000600d0
:10178000889fbe008a1f780000047800c80090007f
:10179000680190000000eb00828f50003c0039008f
:1017a000180078002200290002016000e20f5100b9
:1017b00007003200012024000000e00001003d008d
:1017c00001202000008c70000080eb00300037000a
:1017d0000200260002006000820f500009003a005b
:1017e00038009000808f5000060039000800780013
:1017f000e6fe0700800078000080eb000100e000ba
:1018000023003a001805780000c0200000006500a1
:1018100018003a00a8049000600220000800400070
:10182000808f540013003a000020200082fd070042
:10183000200498000000e00005003a002904980008
:10184000490498008904e80039049800080037002a
:101850000a60a0000a0c78004004980001202000d3
:101860008080400031049800400c9800500c980093
:10187000f9010700280090005004980038009000fb
:101880006004980000002600180c70000000eb00b7
:101890004f0578004f04be0000000600fc8747009b
:1018a000889fbe008a9fbe008c9fbe008e1f78005e
:1018b0000006780080c5b30080cf50000a003200d7
:1018c0007740400080cf50000a003200694040005d
:1018d00080cf50000b0032001016220080bf9f0006
:1018e000ae0020000a0037000215220082bf9f00d0
:1018f000060037001316220083bf9f008e002000d1
:10190000030037001416220084bf9f000e01200040
:101910003c02be002c03be000605be000404be004f
:1019200040c6b30080cf5000030032006540400045
:1019300080cf50000b003a00e00f5200e08f5a00b9
:10194000e00f5b00e08f5b0006003d006000b80028
:101950006011b80004045000858458000605590041
:1019600087855900e80f570004003200400020002e
:10197000f00f570038003a00010037003000200017
:10198000e00f5400e08f5c00e00f5d00e08f5d0031
:1019900004003a00dc0890008d0120000100e00006
:1019a000060032008e00e900888060008fba970040
:1019b000e5c07800f1ef9f007d01200080007800f5
:1019c0008100e900050033008b05d1000a85d300b2
:1019d0008984d3000884d300f9ff3700089ebe0035
:1019e0000a96be00120037008d06e9008e00e9005d
:1019f000848060000fb99700e2c1780082fd2f005b
:101a00000f01410003f17e00800078008100e900b1
:101a1000050033008783d1000683d3008582d3007d
:101a20000482d300f9ff3700049ebe000696be0074
:101a30003c02be002c03be00e00f5200e08f5a00b3
:101a4000e00f5b00e08f5b008b0034000d00e000d6
:101a5000e5ff3c00880037002c60900081c6b30091
:101a6000814f50000b00320006003c000004e000f3
:101a700008003200e6c05000814f50004e003a008e
:101a800004003700c1c6b300814f50004a003a003d
:101a9000210037000800e00004003a005c089000d4
:101aa0008d0120000000e000060032001100090056
:101ab0000e84d8000fb99700e2c07800f1ef9f00c4
:101ac0007d012000110009000e84d8000a003700b3
:101ad000110009000e04d8008d06e9000e81b9003e
:101ae000020454008fb8970061417c0081fd2f00f3
:101af0008f80400082f07e00000478000800e00043
:101b0000020032000d00e000f1ff3c00cfc4de0017
:101b1000614db90025003700e00f5400e08f5c00f4
:101b200004003a005c0890008d0120000000e000f5
:101b3000070032006171b9000800be00c60107004d
:101b40008fb99700e3417800f3ef9f007d012000fb
:101b50006171b9000800be003bfc07000b003700b4
:101b60006171b9000800be00ac0107008d06e900f4
:101b700000f1b900020454000fba9700e4427c005f
:101b800084fd2f000f02420005f27e000004be001b
:101b9000e00f5000e08f5800020032000d00e0001e
:101ba000efff3c004fcdde008a057800089ebe00a6
:101bb0000a96be0030003700e00f5400e08f5c0052
:101bc000e00f5d00e08f5d0004003a005c089000cb
:101bd0008d0120000000e000090032006172b900b0
:101be000612bb9000800be000a01be0043020700d5
:101bf0000fba970064427800f4ef9f007d01200047
:101c00006172b900612bb9000800be000a01be0074
:101c1000330207000d0037006172b900612bb90073
:101c20000800be000a01be00380207008d06e90068
:101c300000f2b900040454008fba970065427c009a
:101c400085fd2f008f82420084f27e00009ebe0040
:101c50000296be003c04be002c05be00e00f5400fe
:101c6000e08f5c00e00f5d00e08f5d00020034005b
:101c70000d00e000e8ff3c00e80f570010003a00bc
:101c80000c1090000038a3000d003200f78f5600b2
:101c900006003e0085fd2f008f824200e5c07e00d9
:101ca00000c3b30080cf5000050032008d06e9006c
:101cb00002c3b30081fd2f008f80400082f07e00c0
:101cc00078811600120e98006c00900083fd2f00a2
:101cd0008f8141008d8041008ffc07001c0890001f
:101ce000dc089000810f500006003d00008050008d
:101cf000000e98000c1090000040a1000016980003
:101d00000f0037000100e0000d003d008c10900036
:101d1000f4806000f08f500009003a007c099000c8
:101d2000fc009000810051000c099000828050005e
:101d3000008050004240a90001003400000e9800cd
:101d40004f0778004f06be004f05be004f04be008f
:101d5000cf01b100000006000400fa00889fbe0019
:101d60008a9fbe008c1f780000047800010678006e
:101d7000f80d9000780090008085550008089000cc
:101d8000808555001808900080855500280890002f
:101d900080855500380890008085550048089000df
:101da000808555000002220090bf9f0000032300a1
:101db000a0bf9f00081090000028a30015003a0063
:101dc0000b00e000130034000b0578008a04780053
:101dd000e20f55000100360029002000c8019000e4
:101de00009017800ee8057005800900003000100c0
:101df000500498000000e0008c0032006808900059
:101e000009004000600c9800090555004240a900f7
:101e1000eeff3c00780190000200e0000c0034006e
:101e2000c80190008c007800580090000300010069
:101e3000500498008080eb000000e0007c0032003d
:101e4000e80890007800900000804000600c980046
:101e5000880c90000900e0001100340009057800aa
:101e6000e28f5400010036002a002000c8019000d3
:101e70000a017800ec805700580090000300010030
:101e8000500498000000e0006800320068089000ec
:101e90000a004000600c98008a845400edff37006f
:101ea000180990000200e0000c003400c801900006
:101eb000e8009000580090000300010050049800d2
:101ec0008080eb000000e00059003200e80890003c
:101ed0001808900000804000600c9800a80c90004a
:101ee0000900e0001100340009057800e28f540079
:101ef000010036002a002000c80190000a01780085
:101f0000ec80570058009000030001005004980036
:101f10000000e00045003200680890000a00400020
:101f2000600c98008a845400edff37003809900057
:101f30000200e0000e003400e80090001808900055
:101f400080804000c801900058009000030001000c
:101f5000500498008080eb000000e0003400320064
:101f6000e80890003808900000804000600c98005d
:101f7000c80c90000900e000110034000905780049
:101f8000e28f5400010036002a002000c8019000b2
:101f90000a017800ec80570058009000030001000f
:101fa000500498000000e000200032006808900013
:101fb0000a004000600c98008a845400edff37004e
:101fc000081090008000eb000028a30018003200e9
:101fd0000b00e000160034008b047800090578003f
:101fe000e28f5400010036002a002000c801900052
:101ff0000a017800ee8057005800900003000100ad
:10200000500498000000e0000800320068089000ca
:102010000a004000600c98008a8454004240a900e5
:10202000eeff3c008000eb00010037008080eb00f9
:10203000010078004f0678004f05be004f04be0037
:102040000080fa0000000600010878000000060089
:10205000e00c210061003700881f7800a81b2200d7
:102060001804e00003003a00f9ff070020c0b300a5
:10207000004c78004f04780000000600889fbe00e6
:102080000004780008007800c0fc07008004780095
:1020900000042000180060000200320028009000b8
:1020a00000fb07000000eb0020049800384090007f
:1020b0000004e000050035000000fb008dfa070079
:1020c0000000e000010032008084eb001810900056
:1020d0000000e000080032008ffa07000000e00076
:1020e000010032008084eb0018109000edfa070028
:1020f0000000eb0010149800000820001800600099
:10210000150032000001eb006000b800630f2200f0
:102110000202d00063027a00880f520005003a00e4
:102120000000400081804800008041000008eb0072
:102130000600370061004000e08048000201e8002e
:10214000e80f5000e08f5800f0ff3a0008007800d8
:10215000d4fa07000e003700000c780000c0eb0036
:1021600030449800600220000800400020049800dd
:102170004004980050049800400c980060049800b7
:10218000500c98007004980076004400000c9800f1
:10219000090078004f04be0000000600881f780088
:1021a0000004eb006140b800e2ff2f00f3ff2f00b6
:1021b0002c00070042102200620078000000e000be
:1021c00001003200adff07000804e800e80f5400ea
:1021d000f4ff3a004f0478000000060001002000e0
:1021e0000100e00008003200010080000100e00072
:1021f000050032008100e900010088008100d00064
:102200000200800000b178000000060000c0da0083
:102210000000060000c0da0000000600839f68008e
:102220000100e00002003d0060001000e0801800a6
:102230000300e00002003d0060011100e081190090
:1022400081fa07004f00e00002003b006000100030
:10225000e0801800000006007bfa07000400be00c2
:1022600000000600020ab900001bb9000200b80015
:10227000810042008100430000000600889fbe00ec
:102280008a9fbe0030044200b0844a0030054b00f3
:1022900090854b006000b1000898be000a90be0017
:1022a0000440e10005c8e10006d0e10007d8e100e4
:1022b00002003100680040001008e8004f05be0031
:1022c0004f04be0000000600889fbe008a9fbe002b
:1022d0003004be002005be000418540005985c00c0
:1022e00006185d0007985d00110020000440e10021
:1022f00005c8e10006d0e10007d8e100010039007f
:102300008000eb00108810004f05be004f04be0097
:10231000000006001200fa00889fbe008a9fbe00df
:102320008c9fbe00e0b79f00f1b79f0082bf9f0067
:1023300093bf9f000605be000404be000000eb0032
:10234000d0b79f00c0b79f00b0b79f00a0b79f0055
:1023500090b79f000006eb005fb19700cfb09700e9
:10236000820141003fb097000200e00004003d0000
:10237000370007007e805700c0ff070003003700ca
:10238000330007007e805700cfff0700dfb69700bd
:102390000d00e0000c0035006fb29700ffb297000f
:1023a0000fbb97009fbb970010002000010020008a
:1023b0006011b80000027200818272000203730093
:1023c000838373001b0007000c06e8000104200053
:1023d000810f5600e0ff3a000d00e00004003d00d0
:1023e0000802be000a03be007e805700a3ff07005c
:1023f0005fa897000000e00005003a001fb29700b8
:10240000afb297003fb39700cfb397000900070022
:102410006fb09700ffb097000fb997009fb9970072
:102420004f06be004f05be004f04be000080fa00fc
:10243000000006000100070000000600a4b79f008e
:10244000b5b79f00c6b79f00d7b79f000000060032
:102450004f09de0082817100b3b79f004f01de009b
:102460008180400082807000a1b79f008fb09700ec
:102470004f09de00000040000200700090b79f008e
:102480007fa897004f01de008180400082807000ad
:1024900081b79f000d0007004f3ade0000004000aa
:1024a00004007000f0af9f00080007000402420023
:1024b00085824a0006034b0087834b00dfff07003d
:1024c0000802be000a03be00000006002fb29700fb
:1024d000bfb297004fb39700dfb39700000006002c
:1024e000881f780018002000881f780089ff0700e7
:1024f0008f87e9004f04780000000600801feb0082
:1025000084ff07008f87e90000000600889fbe0057
:102510008a9fbe00e00f5000e08f5800e00f590086
:10252000e08f59000c003d006044b8006055b800d1
:102530000000540081805c0002015d0083815d0029
:10254000180020001500070008003d0018000700d3
:102550000004eb00050037000004eb000f0007004b
:1025600002003d001200070018002000dcff0700f9
:102570000800e000060032006022b8006033b800b6
:102580000000520081805a0002015b0083815b00e1
:102590004f05be004f04be0000000600e00f5200d1
:1025a000e08f5a00e00f5b00e08f5b000000060048
:1025b0006044b8006055b8000402540085825c0095
:1025c00006035d0087835d0000000600889fbe0053
:1025d0008a9fbe008c1f7800e00f5000e08f5800eb
:1025e000e00f5900e08f59000d003d006044b80035
:1025f0006055b8000000540081805c0002015d005d
:1026000083815d001c0020000820e10009a8e10092
:102610000ab0e1000bb8e1000d003d0008003700f2
:102620000006eb00e00f5200e08f5a00e00f5b0065
:10263000e08f5b0006003d006044b8006055b800c4
:102640000402540085825c0006035d0087835d0000
:10265000aaff07000c00e000060032006022b8006c
:102660006033b8000000520081805a0002015b0014
:1026700083815b004f0678004f05be004f04be000b
:10268000000006006200fa00889fbe008a1f7800e2
:102690000005780081047800020478008300780047
:1026a00080f92f000f00400067fe07009a979f00f7
:1026b000a9979f000000eb00b09f9f001885fb00ca
:1026c0008a04fb000a05ea004f55de005002200094
:1026d000808f54000d003200e10f55000b003a00ce
:1026e0000a017800880078002f9097009f9197004a
:1026f00003000100a0979f000000e0008e00320060
:102700003f9897000000e800b09f9f000a04440033
:1027100050022000808f5400040032000900e000c5
:10272000e6ff3a003f989700840037000000eb0076
:10273000909f9f00809f9f00f0979f00e0979f00d1
:10274000d0979f00c0979f0007003700611a2200b2
:102750000100500000004000a11922006100780033
:10276000df98970001007000d09f9f0088047800d8
:1027700009047800384578008a00fb00601a2200be
:10278000e3fb07000000e000f0ff3a00a1c2b30045
:10279000814f55000e003a00cf8897000180e90074
:1027a000c08f9f0010007800c09f9f000000e000d5
:1027b00005003d000000ea00c09f9f005f98970061
:1027c0000020a000d09f9f000904e8000f00370000
:1027d000c09f9f000000eb0005003700f2ff2700bc
:1027e000820f5000020032006a01b90002804000ee
:1027f0000904780088047800b900fb000103b100e7
:10280000e98f5000f5ff3600c09f9f00e0c2b30083
:10281000984f1000020032000080eb0019003700d2
:10282000a0c2b300d84f100007003a00cf8897002d
:102830000180e900c08f9f0010007800a09f9f00da
:102840000804e800100037000000eb00a09f9f0084
:102850008800780005003700f3ff2700830f500041
:10286000020032006a02b90004004100010478004d
:10287000880078003101fb000203b100e90f51002c
:10288000f5ff3600a09f9f00984478008900fb0068
:10289000201922009efb07000000e0000200320029
:1028a0000804e800010037008044eb00c97f9f0066
:1028b00080c6b30080cf540004003a0098cf1400c3
:1028c0000a003a006640500006003700c0c6b30058
:1028d00080cf540005003a0098cf140003003a005e
:1028e00065404000c07f9f000804e8001801fb001d
:1028f000e3fb2f008f81410081f92f008f80400082
:10290000a0f92f000f004000100007000000e000b9
:1029100009003a00e1fb2f008f804000a0f92f0052
:102920000f0040000cfd07000000e0000200350031
:102930000804e80061ff37000080eb004f057800d5
:102940004f04be000080fa0000000600889fbe0011
:102950008a1f780000047800e0c6b300804f510061
:10296000c100320015003c006b405000804f510008
:10297000240032000a003c0070405000804f51009b
:10298000fa00320065404000804f5100680032007c
:1029900050c2b300804f51000b013a0007013700cd
:1029a00040c6b300804f51001b003200654040001c
:1029b000804f510004013a001700370030c7b300c0
:1029c000804f5100e900320007003c006440500095
:1029d000804f5100560032000040e800804f510007
:1029e000f9003a00d300370050c7b300804f5100c0
:1029f0004f00320063404000804f5100f2003a0027
:102a00004b0037001181e9008208780078009000bf
:102a100012417800ea00370028609000c4c6b30075
:102a2000844f500007003a00110278006400520001
:102a3000800878001002be004fabde0086037800ed
:102a40001100370014c7b300844f50000300320058
:102a5000a4c6b300844f500006003a00110278006b
:102a600068005200800878003002be002003be00db
:102a7000050037001180e900800878001002780016
:102a8000cfa2de00612bb900049cbe000694be00fc
:102a90002860900081c6b300814f50000d003200c5
:102aa00021c6b300814f500004003a000402fb002d
:102ab000cfa2de00612bb9000800370041c7b30088
:102ac000814f500003003200e6c04000814f5000ab
:102ad00004003a00cfa2de00612bb900049cbe00c6
:102ae0000694be003802be002803be0078009000a5
:102af000d1c2b300e00f5200e08f5a00e00f5b003c
:102b0000e08f5b0008003500881090000118a300da
:102b100002003200b1c2b300030037000108a30075
:102b20004c00320001c2b3008171780047003700c9
:102b300028609000c4c6b300844f500006003a00dd
:102b40001102780064005200800878001002be0074
:102b50006033b8001100370014c7b300844f500031
:102b600003003200a4c6b300844f500006003a00b0
:102b70001102780068005200800878003002be0020
:102b80002003be00050037001180e90080087800ae
:102b9000100278008002eb006033b800049cbe0095
:102ba0000694be002860900081c6b300814f50009b
:102bb0000d00320021c6b300814f500004003a00de
:102bc0000482fb008002eb006033b800080037008d
:102bd00041c7b300814f500003003200e6c04000ff
:102be000814f500004003a008002eb006033b800cf
:102bf000049cbe000694be00081090000038a3009c
:102c0000140032003802be002803be00e00f52005c
:102c1000e08f5a00e00f5b00e08f5b000d00320098
:102c200080c7b300804f51000300320080c5b3005d
:102c3000804f510007003a007800900001c3b300b4
:102c4000817178000000e800827178000000e800df
:102c5000700498007800900080814100630498001f
:102c6000824078003e00370028619000c3c6b30060
:102c70001180e900834f5100220032000a003c001d
:102c8000e4c15100834f51002500320083c1e800a8
:102c9000834f510013003200e8c15100834f5100af
:102ca0001e003a000a00370043c7b300834f5100ab
:102cb0001b003200e6c14100834f51001800320072
:102cc000e9c15100834f510014003a00050037005c
:102cd0008008780010007800485c90000848780070
:102ce000410037008008780010007800680a9000e2
:102cf000cfa2de00612bb9000498be000690be0092
:102d000039003700800878001000780068099000ca
:102d1000cf91de000288be00330037001180e90049
:102d20008008780010007800680c9000080878008f
:102d30002d0037001180e90080087800100278002b
:102d4000cfa2de00612bb900049cbe000694be0039
:102d500078009000808141006304980081c7b3002f
:102d600008007800cdfa07001f0037001180e90045
:102d700080087800100578006a049800d80c90004c
:102d80000900e00004003d000a0078006cfa07002a
:102d90008004780007003700090178008000eb000c
:102da0000a00780050fa07000000e000010032003d
:102db0008a045000190c98000b003700780090002e
:102dc0008271780006003700780090008081410011
:102dd0000204e00001003a0052c2b30082497800c8
:102de0000000e800700498000000eb004f05780038
:082df0004f04be0000000600c4
:020000040000fa
:102df8007200000077000000746900006d65000033
:102e080072200000646f00006e6500000070000012
:102e18006c610000796900006e670000206c00009a
:102e28006976000065000000737400006f70000090
:102e3800706900006e670000206c00006976000071
:102e4800650000007374000061720000746900007e
:102e58006e670000207000006c610000796200005d
:102e6800616300006b000000706100007573000072
:102e7800696e000067000000737400006f70000046
:102e8800706900006e670000207200006563000032
:102e98006f7200006400000073740000617200002b
:102ea800746900006e67000020720000656300000e
:102eb8006f720000646900006e6700000070000017
:102ec8006c610000796900006e670000206e0000e8
:102ed80065780000740000007374000061720000df
:102ee80074650000640000005741000056000000af
:102ef800256400002e7700006176000000000000c5
:020000040000fa
:102f08000200fa00004f780001128000000420003f
:102f1800008060000000e0000100320040c2a9000b
:102f28001e80fb0040128800000000000012800094
:102f3800610060000000e000fcff320040128000e9
:102f4800004078000080fa00000006000a00fa003d
:102f5800404798003207980043079800c442a900e8
:102f68004e4090000064a000e5ff07003e0090007e
:102f7800ce0090004808de0000407800e0ff07001f
:102f88003e009000ce0090004008de00004078002f
:102f9800dbff07003e009000ce0090004809dd00ee
:102fa8004800de0000007100c808de00004078001c
:102fb800d3ff07003e00900000407800d0ff0700d4
:102fc80050c9b300ceff070030012000000f780081
:102fd80000c0eb00caff07000080fb001007980044
:102fe8009e009000f00f2000808f500005003a00ee
:102ff8001e0fe9001e0078000000e000f4ff3c000e
:1030080001003700000000001e0090000080fa0058
:10301800000006000400fa00c442a80000c0eb004b
:10302800b7ff07000000eb00000f7800030037002f
:1030380000c0eb00b2ff07001e0fe8001e0078007a
:10304800e90f5000faff3400c442a9006011b8002b
:103058000040eb00bdff070010079800c442a8001d
:1030680000c0eb00a6ff07001e009000e10f500013
:1030780002003200400820001d00370000712200c5
:10308800000f78006011b80010c0b300afff070050
:1030980010079800c442a80000c0eb0098ff070082
:1030a8001e0090000000e000050032001e0fe9003d
:1030b8001e0078000000e000f2ff3c00010037002d
:1030c800000000001e0078000000e00002003a0046
:1030d80050082000060037004022ef00b0132000ff
:1030e8001012880000002800001288000000eb0081
:1030f8000080fa00000006000a00fa002007980085
:1031080031079800420798002e019000be019000f8
:103118004918dd00c710de00810070004910dd008d
:103128000001be0080c1b30088ff0700000f7800cf
:103138001e0078000000e00032003a00e0cfb30043
:103148006fff07000000eb00100798000900370028
:103158004e00900010407800ce0090008100e800fa
:103168004107980066ff07001e0090000000e80075
:10317800100798009e009000f01f2000808f5000dc
:10318800f3ff360000c0eb005dff070000c0eb0056
:103198005bff070000c0eb0059ff07000080fb0041
:1031a8006f0f60001e007800e50f500011003a0014
:1031b80080de2f00100798000a00370000c0eb00df
:1031c8004fff07000080fb00000f78001e0078000a
:1031d8000000e0000a003a001e0090000000e9002c
:1031e800100798001e0090000000e000f3ff3a006e
:1031f800040037000000eb00000f780001003700e2
:1032080000000000c442a80000c0eb003cff07001b
:103218001e0078000080fa00000006000a00fa008c
:103228002007980031079800420798002e01900067
:10323800be0190004918dd00c710de008100700053
:103248004910dd000001be0010c1b3003fff0700b8
:10325800000f78001e0078000000e0002a003a0005
:10326800801a26001007980000c0eb0024ff070012
:103278000080fb00000f7800e00f20009e0078001f
:10328800808f5000070032001e0090000000e90007
:10329800100798001e0090000000e000f2ff3c00bc
:1032a80001003700000000001e0090000000e00050
:1032b800150032000000eb00100798000a003700e4
:1032c80000c0eb000eff0700ce0090008048780099
:1032d8004e0090000000e800400798001e00900093
:1032e8000000e800100798009e009000f01f2000e2
:1032f800808f5000f2ff340000c0eb0000ff070091
:1033080000c0eb00fefe0700c442a80000c0eb00ae
:10331800fbfe0700e00f20001e00680000f0a70079
:103328000000ea000000e9004f00de000080fa001b
:10333800000006000c00fa00881f780040012000f9
:10334800bbf60700f0408800f04080000000e00075
:1033580004003a0010c1b30000e8b7000000eb0019
:10336800c700370000202000b1f60700000f7800e2
:103378001e0078000000e00006003a0010c1b3000b
:1033880000e8b700f040800044f607000000eb00ba
:10339800bb0037001e0178006000b8009fff0700df
:1033a8000000e00008003a0000c1b30000e8b700e0
:1033b800f040800039f607001e00780037f6070055
:1033c8000000eb00ae003700e11f20001e80400027
:1033d8009040780050c5b30080cf500006003a00f6
:1033e800f21f20001e00410090407800a0cab300e0
:1033f80080cf50000800320040c0b30000e8b7009a
:10340800f040800025f607001e00780023f607002c
:103418000000eb009a0037001e007800a01cb000e6
:103428001001be001207980023079800231c2000f3
:103438001e804100104078000080fb003007980093
:103448003e009000ee0f500013003e0011002000d7
:103458003e0090008008dd00000524000080600028
:103468000000e0000c0032001e007800601cb00074
:103478001001be0042079800530798001e0178000b
:103488004e009000de00900064ff07000000e0009e
:10349800090032000e00370030c0b30000e8b70062
:1034a800f0408000fdf507001e007800fbf50700de
:1034b8000000eb0072003700f0408000f7f50700cd
:1034c8001e007800f5f507000000eb006c003700df
:1034d800e31f20001e8041009040780050c5b300d3
:1034e80080cf500006003a00f11f20001e804000e7
:1034f80090407800a0cab30080cf50000800320086
:1035080050c0b30000e8b700f0408000e3f50700c2
:103518001e007800e1f507000000eb0058003700b6
:10352800f04080001e017800ed00410091407800d5
:1035380031509800f44080001e0078006e00400072
:10354800100078006101b8004e009000de00900085
:103558000200400083804800008abe00f0408000de
:103568009e007800f68040009100780001089800dd
:10357800f04080009e017800f08041009140780082
:1035880021509800f4408000f04080001001be00f7
:10359800f040800080089000f040800020509000ab
:1035a8000080fb000088b900000078008000eb0074
:1035b80002004000838048002002980031029800f1
:1035c800f04080001e017800f10041009140780031
:1035d8000181fb009e017800f28041009140780053
:1035e8008180fb00c808dd0081004100610098006f
:1035f800f4408000f040800020019000b00190006d
:10360800f0408000600090004400de008000eb0085
:103618000200400083804800400298005102980050
:10362800f8408000f0408000d000900040009000fa
:103638004e019000de019000000151008181590087
:103648001e009000ae0090000202400083824800f5
:10365800f0408000305090000080fb008000eb00bc
:103668000001be000400be0075f5070000007800e8
:10367800700498001e00780088f50700f04080006c
:103688004f0478000080fa00000006000000fa00ed
:10369800f040800081f507001e28ef000080fa0046
:1036a800000006000600fa00889fbe002007980068
:1036b8002e0090001000780040039000d003900086
:1036c8002e009000300090000080e9006101b800f1
:1036d8002e00900010007800305090000080fb0011
:1036e8008000eb00009ab90004027800028cb9004f
:1036f80088027800050242000010b800010242006a
:103708008400780006014000878148002e00900060
:10371800400090008000eb00001f41000197490025
:103728002e00900010009000000178001e00be00de
:10373800bafe07004f04be000080fa000000060031
:103748000600fa00889fbe00200798002e0090000f
:103758001000780040039000d00390002e009000e5
:10376800300090000080e9006101b8002e00900050
:1037780010007800305090000080fb008000eb00c3
:10378800009ab90004027800028cb9008802780017
:10379800050242000010b8000102420084007800cf
:1037a80006014000878148002e00900040009000ec
:1037b8008000eb00001f4100019749002e00900097
:1037c80010009000000178001e00be004afe0700ad
:1037d8004f04be000080fa00000006000800fa004e
:1037e80020079800310798002e00900010007800fc
:1037f80020019000b00190003e0090004400de00df
:103808008000eb00001f4100019749002e00900046
:1038180010009000000178001e00be007ffe070027
:103828000080fa00000006000800fa00200798004f
:10383800310798002e0090001000780020019000b9
:10384800b00190003e0090004400de008000eb00d4
:10385800001f4100019749002e00900010009000c1
:10386800000178001e00be0023fe07000080fa0059
:10387800000006000c00fa00500798005e00900057
:1038880090007800210798000000eb00000f7800f6
:103898009e0078005e009000d0ff07000000e00066
:1038a80003003a000000eb0076003700000000003b
:1038b8009e0078006f8060004500dd0030079800aa
:1038c8005e009000900090003e0090000080400054
:1038d800104078000080fb00400798004e009000e0
:1038e8000000e00002003a001000200065003700e8
:1038f800ce009000500e2000808f50005000320003
:103908005e009000900090003e0090006b00400028
:1039180000804000104078000080fb0040079800bd
:103928004e009000720060000000e00044003a0081
:103938000000eb001007980012003700de0090002e
:103948001e0090007a004000614078008000fb0073
:103958005e009000100190009e0190003e009000d3
:103968000080410000004100104078000080fb000a
:10397800808f500007003a001e0090000000e80009
:10398800100798001e009000ea0f5000ebff34006b
:1039980001003700000000001e009000eb0f5000ef
:1039a80027003a005e0090009e00780041109800c1
:1039b8005e009000900090003e009000760040006d
:1039c80000804000900078005e0090003108980068
:1039d8005e009000900090003e009000780040004b
:1039e80000804000900078005e0090004108980038
:1039f8005e009000900090003e0090007c00400027
:103a0800008040001000be005e0190001009980080
:103a1800210998005e009000900090003e00900000
:103a28007a004000008040001000be00800078004e
:103a38005e0090002100980020002000110037004f
:103a48001e0fe8009e0078006f8060000000e00014
:103a580007003a009e0078005e0090005fff0700b4
:103a68000000e00002003a000000eb00050037000b
:103a78002e009000600090009e0f50008bff3e00cb
:103a8800100020000080fa00000006000a00fa007a
:103a9800400798004e0090009000780011079800a9
:103aa8000000eb00000f78009e0078004e009000a8
:103ab8004aff07000000e00003003a000000eb00a6
:103ac80029003700000000009e0078006f80600029
:103ad8004500dd00200798004e00900090009000ff
:103ae8002e00900000804000104078000080fb000d
:103af800300798003e0090000000e000040032000b
:103b0800be009000500e2000808f500005003a0043
:103b18004e0090009e007800411098002000200080
:103b2800110037001e0fe8009e0078006f806000cb
:103b38000000e00007003a009e0078004e00900068
:103b480026ff07000000e00002003a000000eb003a
:103b5800050037001e009000600090009e0f500086
:103b6800d8ff3100100020000080fa000000060095
:103b78000c00fa0040079800510798005e0090007a
:103b88004800de00000f78004e009000100078001a
:103b98001001be001e0078008000eb00020040000b
:103ba8008380480010079800210798004e00900075
:103bb80010009000000178001e009000ae009000f8
:103bc80096fd07000000e00002003a000080eb00cc
:103bd800170037004e009000900090005e019000a2
:103be800f00f20000000610000004000008040004d
:103bf800104078008080fb004e009000100190007b
:103c0800de019000f00f20000080610000004000fd
:103c18000000e80000004100104078000080fb0030
:103c28004800dd0000804000300798003e0090000a
:103c38000080fa00000006000800fa00200798003b
:103c4800310798002e009000100f78002e00900089
:103c580030009000800078002e009000c4ff07001c
:103c6800100798001e009000e90f4000040036007d
:103c780090c0b30000e8b7000000eb001300370065
:103c88001e007800f00090001e009000808f500009
:103c980004003e00b0c0b30000e8b7000000eb002d
:103ca8000a0037003e0090000000e9003007980045
:103cb8003e0090000000e000e4ff3a002e00900073
:103cc8009e00900031009800100020000080fa004b
:103cd800000006000e00fa004007980051079800ff
:103ce80062079800de0090004e009000a0ff0700d9
:103cf800de009000f00f200000806000000040000f
:103d0800300798004e009000900090003e00900010
:103d180000804000ee009000814078000148780063
:103d28004e009000900090003e0090000000e800d7
:103d380000804000ee009000c808de008140780056
:103d4800014878004e009000100078001001be0075
:103d58005e0090004800de008000eb00001f41007c
:103d6800019749000000eb00200798001200370077
:103d78004e00900010009000000178001e00be0068
:103d8800ddfc07000000e00002003a000000eb0044
:103d9800110037002e0090000000e800200798006e
:103da8004e00900010007800000890008000eb00a2
:103db8001e0f40005e9748004e00900010007800eb
:103dc800205090008080fb002e009000808f5000d3
:103dd800e7ff3e00100020000080fa000000060007
:103de8000600fa00200798002e009000b00090000e
:103df800010f78001e0fe8002e00900010007800d8
:103e0800700090009e0f500002003e000000eb0082
:103e1800000f78002e009000300090009e0f500098
:103e280004003a00d0c0b30000e8b7000000eb007f
:103e3800190037009e0078002e0090004cff070004
:103e4800100798001e0090000000e000e9ff3a000b
:103e58000081eb009e0078002e0090009dff070077
:103e68002e009000300090000000e00006003200b4
:103e78002e009000300090001e017800800078002d
:103e88002e00900093ff07002e0090009e007800ff
:103e980031009800100020000080fa0000000600a1
:103ea8000600fa00889fbe008a9fbe008c9fbe0055
:103eb800200798000000eb00000f78002e0090000b
:103ec800d060900070c7b30080cf50004b003a001c
:103ed8002e009000500090000000e0000400320026
:103ee8002e00900016fe07000000e0004600320099
:103ef8002e00900040109000800078002e00900066
:103f080036fe07000000e000410032002e0090005d
:103f1800401090006f0060004500dd001007980019
:103f28002e009000900090001e0090007c00400041
:103f3800008140002e009000a0089000100890001a
:103f480000407800004978002e0090009000900012
:103f58001e0090007d004000008140002e0090006f
:103f6800a008900010089000c809dd004806de008f
:103f78000c867100c88ede000c407800004978007d
:103f88002e009000900090001e0090007e004000df
:103f9800008140002e009000a008900010089000ba
:103fa800408dde00cf8dde000a40780000497800a1
:103fb8002e009000900090001e0090007f004000ae
:103fc800008140002e009000a0089000100890008a
:103fd800488cde00cf8cde0008407800004978006d
:103fe8002e00900040109000800078002e00900075
:103ff8000dfe07000000e00007003200100020005e
:10400800000f7800050037000000000003003700ab
:104018000000000001003700000000002e009000a2
:10402800100090001df307002e0090001bf30700fe
:104038001e0078004f06be004f05be004f04be00ac
:104048000080fa00000006001000fa0060079800df
:1040580071079800f04080000000e00004003a007a
:1040680060c0b30000e8b7000000eb00a301370010
:10407800002020006ef30700200798002e00900013
:104088000000e00004003a0010c1b30000e8b700e7
:104098000000eb0099013700a002200064f307003c
:1040a800300798003e0090000000e00006003a004b
:1040b80010c1b30000e8b7002e009000f7f2070027
:1040c8000000eb008d013700f14080003e009000b9
:1040d800010878003e009000ae00900011009800a2
:1040e8000000eb0010079800170037006e009000e2
:1040f800104078000000fb00ee0090008100e8000e
:1041080061079800def20700004f78001e40780033
:104118000004e00019003200e0c2b3009e407800bd
:1041280080cf500015003200be0090001e009000a5
:10413800008040007a0040001e4878001e00900071
:104148000000e800100798001e009000e70f5000dc
:10415800e6ff340009003700be0090001e00900002
:10416800008040007a00400001c2b3000148780096
:104178001e0090000000e800100798001e00900044
:10418800e70f5000f4ff34001e4078000004e00000
:10419800340032008000200010079800210037000a
:1041a8006e009000104078000000fb00ee009000c8
:1041b8008100e80061079800b1f20700004f78001d
:1041c800e0c2b3009e40780080cf500008003a005b
:1041d8006e009000104078000000fb00ee00900098
:1041e8008100e80061079800a5f20700004f7800f9
:1041f8001e4078000004e00002003a0000000000c1
:1042080015003700be0090001e009000008040009e
:104218007a0040001e4878001e0090000000e80068
:10422800100798001e009000ea0f5000dcff3400d1
:1042380009003700be0090001e009000008040007a
:104248007a00400001c2b300014878001e009000c7
:104258000000e800100798001e009000ea0f5000c8
:10426800f4ff34007e0090009040780020c7b3002f
:1042780080cf5000050032007e009000904078000a
:1042880070c7b30080cf50000b003a007e0090004a
:10429800904078003e009000516098003e009000e9
:1042a80074fd0700400798004e0090000000e000f1
:1042b800040032000600370020c1b30000e8b70050
:1042c8000801370030c1b30000e8b7000501370026
:1042d8003e0190006000b800700198000109980044
:1042e8003e0090008000eb00410098003e009000e6
:1042f8008000eb00510098003e009000d0609000d4
:1043080020c7b30080cf50002b003a004e00900029
:10431800e10f500003003a0070c0b30000e8b70096
:10432800f00037003e009000a00090003e00900092
:10433800310098003e009000dafc07000000e00021
:10434800e70032003e00900010099000a00990009c
:104358003e0090008008900070009000000151001d
:1043680081815900f01f200001002000800f5100ba
:10437800818f59000c003c003e009000a00890007e
:1043880010089000000178003e009000800890001e
:104398007000900000007800800051003e009000fe
:1043a80061009800cc0037003e00900001202000fa
:1043b80061009800c80037004e009000e10f5000df
:1043c800c2003a003e0090008000eb0031009800e7
:1043d8003e00900082fe07000000e00003003a0063
:1043e800d0c0b30000e8b700be0037003e00900020
:1043f800b00090003e009000210098003e00900020
:10440800a2fd0700400798004e0090000000e00061
:1044180003003a0010c0b30000e8b700b10037004d
:104428004e009000e10f500003003a00c0c0b300f6
:1044380000e8b700ab0037003e0190006000b8000c
:1044480010099800210998003e0090004010900043
:104458006f0060004500dd00500798000000eb0089
:10446800100798000b0037003e0090009000900065
:104478005e0190001e009000000041000080400096
:104488008040eb00014878001e0090000000e80022
:10449800100798001e009000ff0f5000f2ff340034
:1044a8003e009000a1782300410898003e0090004b
:1044b800900090005e00900078004000008040006e
:1044c800be009000c1089000814078000148780043
:1044d8003e009000900090005e009000790040003f
:1044e80000804000be009000c1089000c808de00af
:1044f80081407800014878003e00900090009000cc
:104508005e0090007000400000804000be009000f7
:10451800c108900081407800014878003e00900072
:10452800900090005e009000710040000080400004
:10453800be009000c1089000c808de0081407800e5
:10454800014878003e0090000100260031089800dc
:104558003e009000900090005e00900076004000c1
:1045680000804000be009000b108900081407800b3
:104578008140e800014878003e00900090009000db
:104588005e0090007700400000804000be00900070
:10459800b1089000c808de00814078000148780022
:1045a8003e009000900090005e0090006e00400079
:1045b80000804000be009000b10890008140780063
:1045c800014878003e009000900090005e00900046
:1045d8006f00400000804000be009000b1089000cd
:1045e800c808de0081407800014878003e0090004d
:1045f800900090005e0090007a004000008040002b
:10460800be009000b1009000814078000148780019
:104618003e009000900090005e0090007b004000fb
:1046280000804000be009000b1009000c808de0085
:1046380081407800014878000000eb0010079800de
:104648000e0037003e009000900090001e01900080
:104658005e00900000004100008040003e01900094
:104668009e009000fa804000e2c07800014878007f
:104678001e0090000000e800100798001e0090003f
:10468800ea0f5000efff34003e00900090009000c9
:104698005e0090006b0040000080400001c2b30043
:1046a800014878003e00900040109000800078009b
:1046b8003e0090005cfc07000000e00006003a00a5
:1046c80010c0b30000e8b70006003700e0c0b30030
:1046d80000e8b700030037003e00900007003700ed
:1046e800000000003e009000100090006bf10700f1
:1046f8003e00900069f107000000eb000080fa001e
:10470800000006000c00fa003007980041079800e6
:10471800520798005e0090009000780011079800fa
:10472800ce009000210798005e009000d0609000b5
:1047380070c7b30080cf50006100320080c0b30062
:1047480000e8b7000000eb00630037005e0090004f
:10475800d00090004e00900080804000f01f2000a4
:10476800808f500003003e00ce009000010f7800bb
:10477800040037005e0090005000900001202000e7
:10478800008f50005e009000900090005e00900046
:1047980050009000008040001e017800be0090008c
:1047a800dbf107005e009000500090009e00400082
:1047b8005e009000510098005e009000700190002b
:1047c800800990001e0078008000eb000200400085
:1047d800838048005e0190007001980001099800ec
:1047e8004e0090001e005000400798003e009000c8
:1047f8001e004000300798005e0090007001900095
:10480800800990005e009000a008900010089000b9
:10481800800f5100818f5900060034005e0090001f
:1048280080089000700090005e01900010099800c8
:10483800210998005e009000d00090000020200020
:10484800808f50001e003a005e009000bcfb0700fd
:104858000000e00002003a000000eb001e003700f4
:104868005e0090008000eb00510098005e00900010
:10487800400090008000e8005e0090004100980031
:104888005e009000c00090001e0090003050900024
:104898000080fb00808f500009003a005e00900005
:1048a8008000eb00410098005e0090004cfd07007e
:1048b8000000e00002003a000000eb0006003700ac
:1048c8004e0090000000e000a0ff3a00ae0090000b
:1048d8004e009000008050000080fa0000000600a2
:1048e8000c00fa003007980041079800520798001a
:1048f8005e0090009000780021079800ce0090009c
:10490800010f78005e009000d060900020c7b300cf
:1049180080cf50007c00320080c0b30000e8b700b0
:104928000000eb00810037005e00900070019000ed
:10493800800990005e009000a00890001008900088
:10494800800f5100818f590003003500a0c0b300cb
:1049580000e8b700730037005e009000d0009000b8
:104968005e00900060009000808f500037003a0091
:104978005e0090008000eb00510098005e009000ff
:10498800400090008000e8005e0090004100980020
:104998005e009000c00090002e0090003050900003
:1049a8000080fb00808f500008003a005e009000f5
:1049b8008000eb0041009800110020005e0090008c
:1049c8009dfc07000000e000530032005e009000ec
:1049d80034fb07000000e000510032005e00900048
:1049e80010099000a00990005e00900080089000d7
:1049f800700090000001510081815900f01f2000d3
:104a080001002000800f5100818f59000c003c00ec
:104a18005e009000a0089000100890000001780047
:104a28005e00900080089000700090000000780000
:104a3800800051005e00900061009800030037007c
:104a48005e00900001202000610098005e00900048
:104a5800500090009e0040005e00900060009000b2
:104a6800808f5000030031009e00780011079800e5
:104a7800060037005e009000e00090005e009000a5
:104a88005000900000805000100798005e009000d1
:104a9800900090005e009000500090000080400060
:104aa8001e019000800078003e00900018f1070079
:104ab8001e0090001e0f10005e009000d0009000b5
:104ac8001e009000808040005e0090005100980019
:104ad8005e00900070019000800990001e00900018
:104ae8008000eb0002004000838048005e019000d7
:104af8007001980001099800be0090001e00900007
:104b080000804000300798001e0078000000e00098
:104b180085ff3a000300370000000000010037005d
:104b2800000000004e0090001e0050000080fa00b7
:104b3800000006001800fa00200f9800310f9800b6
:104b4800110037003e089000f00f500001003600b9
:104b580000012000000f7800640047002e09900033
:104b68009e0078005eff070010079800be089000be
:104b78001e00900000805000300f98001e0090002a
:104b88009e0f500004003a003e0890000000e0002c
:104b9800ecff3a0001003700000000003e089000da
:104ba8000080fa00000006000a00fa00008fbe002c
:104bb8002207980033079800440798001968ef0007
:104bc800c182200019c8bf000000fb004901dd00b8
:104bd8003e009000000041000000e9000080400015
:104be8002040880000202000304088001c28ef006a
:104bf800ae009000714088003e009000e20f500027
:104c080002003a0000082000010037000000eb0015
:104c180060408800ce00900051408800be0090009f
:104c280081408800be0090004e0090000088b900c6
:104c380000007800404088000000280090088800a4
:104c48001e00be000001be0000402200410f2000ef
:104c5800fbef0700000078007008880070088000eb
:104c6800a00c8800a00c8000f00c88007008800060
:104c78000000d100104088008500a9009500a80018
:104c880010408000b00c880010408000000d8800a3
:104c98000080fa00000006000000fa001221ef0070
:104ca8009500a9000080fa00000006003800fa000c
:104cb800301f9800c16f29003e189000e2fc0700e1
:104cc800000f98000e0890000000e00002003a0073
:104cd8000000eb00060137007a0047000e0990003b
:104ce800c1002000fefe07005e099000ee0990005a
:104cf8002095240061642400800f5100818f5900a1
:104d0800f7003a001e119000ae11900070152400b3
:104d180061552400800f5100818f5900f0003a003e
:104d28007a0047000e09900081002000ecfe070081
:104d38005e099000ee09900060d626004107220027
:104d4800800f5100818f5900e0003a006002200076
:104d58000e0040000e09900001012000e0fe07004f
:104d68004e109000100f98007e0890008e10900052
:104d78000000780070005000800078000e08900055
:104d88006cff07007a0047000e09900081002000a0
:104d9800d3fe0700e80f5000ce003a005e099000ed
:104da800ee0990004016260041172600800f51009a
:104db800818f5900070032007e0890008e10900005
:104dc80000007800800078000e08900059ff070066
:104dd800ecff37007e0890008e109000008fbe0018
:104de8005e119000ee11900062079800730798001a
:104df8001000200040079800090037006e0090005e
:104e0800fe00900000004000818048006007980084
:104e1800710798004e00900000004000400798007d
:104e28006e019000fe019000106225000100200034
:104e3800800f5100818f5900f0ff36006e019000fd
:104e4800fe01900000402200410f20007cef070087
:104e580061005000e0805800200f9800310f980042
:104e68002e099000be0990000000200011002000cb
:104e7800800f5100818f5900040036000e08900001
:104e880007fc07000000eb00990037001968ef00e5
:104e98004e109000100f9800100020005007980046
:104ea8002e189000f00f500002003a002000200059
:104eb80050079800f03f2000010020001e01be00ae
:104ec800800f5100818f5900840036000e09900030
:104ed80001402000c082200081fe07008000eb0016
:104ee80020079800310798001c28ef0000c02f0009
:104ef800f1ff2f001e0f40005e9748006e009000e3
:104f0800fe0090001e0a9000de0190004e01900005
:104f180025ff07001f00370014c8bf000004e00089
:104f280003003a0012c8bf000004e00002003a0083
:104f38001468ef006a003700e04080000000e000dd
:104f48001400320019c8bf008000fb0000e02f00e9
:104f58000088b900000078000020b00080007800c8
:104f6800c0822000008040000e099000012020002f
:104f78005bfe07008000eb002007980031079800cf
:104f88001c28ef0002e02f00f3ff2f001e0f410046
:104f98005e974900f01f2000010020001e01be009e
:104fa800800f5100818f5900dbff3e001e00be00bc
:104fb800e00f5000e08f58003e0032009e0178005c
:104fc80019c8bf008000fb0000e02f000088b9006e
:104fd800000078000020b00080007800c082200027
:104fe800008040000e099000830078003cfe070016
:104ff8008000eb00200798003107980019c8bf000f
:105008000000fb00610110002e009000be0090001f
:1050180061005000e08058004911dd0000004100a7
:10502800c1822000614078000080fb00400f98009a
:105038001100370019c8bf000000fb006100100014
:10504800ce08900081407800c2822000c901dd00ae
:105058002e009000008041000000410001487800c7
:105068002e009000be00900061004000e0804800e3
:1050780020079800310798002e019000be0190008b
:10508800f01f200001002000800f5100818f59007f
:1050980003003e004e0890000000e000e5ff3c00e1
:1050a8001c28ef0000000000e04080000000e00045
:1050b800fdff32001c28ef0000000000e0408000e7
:1050c8000000e000fdff320005003700000000008e
:1050d8000300370000000000010037000000000056
:1050e800edfe07000e0890006dfb07001000200081
:1050f8000080fa00000006003600fa00201f980021
:105108002095240061642400008fbe006000b80070
:105118002007980031079800701524006155240075
:10512800400798005107980060d6260041072200e2
:105138006007980071079800000120000100200016
:10514800000f9800110f98001000200020179800f9
:10515800200020003017980040c42a0001002000d9
:1051680040179800511798008088250011002000ea
:10517800601798007117980020002000001f980001
:1051880080002000101f98004016260041172600b6
:10519800400f9800510f98006000b800600f980009
:1051a800710f98002e199000c10020000e007800a1
:1051b80054fd07006c0047002e1990008100200064
:1051c80050fd0700400220000e0040002e199000fc
:1051d800010120004bfd0700780047002e199000c0
:1051e8008100200047fd07000080fa00000006004b
:1051f8000e00fa00889fbe00600798006e009000bd
:10520800a00890001008900068005000e080580046
:10521800008fbe006e009000a0089000100890005b
:10522800c002b1000180b100200798003107980042
:105238006e0090001000780040039000d0039000aa
:105248006e009000200090000080e9006101b80025
:105258006e00900010007800305090000080fb0035
:105268008000eb00009ab90004027800028cb900b3
:1052780088027800050242000010b80001024200ce
:1052880084007800060040008780480040079800a6
:10529800510798006e0090001000900000017800ff
:1052a8004e009000de009000dcf707006e009000d2
:1052b80010009000640040009e0078008140780053
:1052c800014878006e0090001000900065014000d1
:1052d8001e00be00c809dd004800de000080710025
:1052e800c808de0000407800004978006e00900091
:1052f80010009000660140001e00be004008de005d
:1053080000407800004978006e009000100090007e
:10531800670140001e00be004808de00004078001b
:10532800004978006e009000100090008002b000e4
:10533800ae00900081407800014878006e0090002f
:105348001000900092022000000141002e00900001
:10535800be009000c809dd004800de000080710032
:10536800c808de0000407800004978006e00900010
:1053780010009000a2022000000141002e009000c1
:10538800be0090004008de00004078000049780028
:105398006e00900010009000b20220000001410051
:1053a8002e009000be0090004808de000040780003
:1053b800004978006e00900010009000000178000d
:1053c8004e009000de0090004bf707006e00900042
:1053d800fa00400018c8bf000000fb004300dd00d1
:1053e80000017800e0022200000041008200200055
:1053f800c7ee070018c8bf000040e80018e8b7006b
:10540800100020004f04be000080fa0000000600d3
:105418000400fa00100798001968ef001a68ef00f6
:105428001c28ef00e16f29001e00900006fb070012
:10543800000f78001e0078000000e00002003a002b
:105448000000eb002a0037001e0078002aff070042
:105458008460a9009460a80005e1a80021e3a800e1
:105468001b00370015c8bf000004e0000800320028
:105478000100370000000000a18120009140780061
:1054880019c8bf0080cf5000f6ff32000100370076
:10549800000000001ac8bf000000fb00c900dd00c2
:1054a800c0822000008040001e01780001202000fa
:1054b80094fc07001ac8bf000040e8001ae8b700cb
:1054c8001ac8bf00ec4f500001003a001a68ef00fc
:1054d80015c8bf000004e000e6ff3a001e0078008f
:1054e80043ff07001e0078006dfa07001000200037
:1054f8000080fa00000006001400fa007007980007
